S01600004C61625F335F325F4430303033452E7372656331
S11300000C9438000C9455000C9455000C94A300E7
S11300100C9455000C9455000C9455000C947700E6
S11300200C9455000C9455000C9455000C945500F8
S11300300C9455000C9455000C9455000C945500E8
S11300400C9455000C9455000C9455000C945500D8
S11300500C9455000C9455000C945500F5004B017C
S113006054015D0166016F01780181018A019301E8
S113007011241FBECFEFD4E0DEBFCDBF11E0A0E05E
S1130080B1E0EAE4FBE002C005900D92A430B107B0
S1130090D9F723E0A4E0B1E001C01D92A833B20770
S11300A0E1F70E944F030C94A3050C94000080E137
S11300B091E00E94A00480910901882391F080912D
S11300C0EC00897F8093EC008091EC008660809343
S11300D0EC0080E191E00E94A0048091090181116B
S11300E0EECF8091EC00897F8093EC00E0CF1F92EB
S11300F00F920FB60F9211242F933F934F935F9358
S11301006F937F938F939F93AF93BF93EF93FF93DB
S11301109091090181E089278093090180E191E0B0
S11301200E94DE04FF91EF91BF91AF919F918F9157
S11301307F916F915F914F913F912F910F900FBEDF
S11301400F901F9018951F920F920FB60F921124C3
S11301502F933F934F935F936F937F938F939F93CB
S1130160AF93BF93EF93FF931F9919C0809105013B
S113017090910601A0910701B09108010196A11D7B
S1130180B11D8093050190930601A0930701B093DC
S113019008019091040181E08927809304018CE097
S11301A091E00E94DE04FF91EF91BF91AF919F9186
S11301B08F917F916F915F914F913F912F910F900C
S11301C00FBE0F901F901895CF93DF9390E0FC0122
S11301D0F097EA30F10528F082E090E0DF91CF91CA
S11301E00895E25DFF4F0C943A0521E030E0E5E02C
S11301F0F0E045E050E081E090E06230710509F400
S113020045C10CF499C06430710509F418C10CF4AB
S1130210E0C06530710509F0D7C06091EE006F76DB
S11302206093EE006091EE006F707091EE00829525
S11302309295907F9827807F9827862B872B809391
S1130240EE008091F3008F7042955295507F5427B1
S1130250407F5427482B4093F3004091F8004F709F
S1130260CF0182959295907F9827807F9827842B41
S11302708093F8008091FD008F7022953295307F35
S11302803227207F3227282B2093FD0080E090E046
S1130290DF91CF91089520E030E0E1E0F0E041E02B
S11302A050E080E090E0A9CF21E030E0EEE0F0E023
S11302B041E050E081E090E0A0CF21E030E0EBE0CD
S11302C0F0E041E050E081E090E097CF20E030E0C2
S11302D0EBE0F0E045E050E080E090E08ECF21E0FC
S11302E030E0EBE0F0E044E050E081E090E085CFE6
S11302F021E030E0EFE0F0E044E050E081E090E025
S11303007CCF20E030E0E1E0F0E041E050E081E04B
S113031090E073CF21E030E0EFE0F0E045E050E022
S113032081E090E06ACF21E030E0EBE0F0E045E0EE
S113033050E081E090E061CF6115710509F4C5C01A
S11303406130710509F040C06091EC006F766093F4
S1130350EC007091EC007F70A091EC008295929576
S1130360907F9827807F9827EC01C72BBE016A2BCA
S11303706093EC008091F1008F7042955295507F0C
S11303805427407F5427482B4093F1004091F600B6
S11303904F70CF0182959295907F9827807F982700
S11303A0842B8093F6008091FB008F702295329508
S11303B0307F3227207F3227282B2093FB0080E0D8
S11303C090E0DF91CF91089581E090E0DF91CF91AB
S11303D008956091ED006F7082959295907F9827B3
S11303E0807F9827862B8093ED008091F2008F7098
S11303F042955295507F5427407F5427482B409371
S1130400F2004091F7004F70CF0182959295907F52
S11304109827807F9827842B8093F7008091FC0095
S11304208F7022953295307F3227207F3227282BF8
S11304302093FC0080E090E0DF91CF9108956091DB
S1130440EE00667F6093EE006091EE00607F709135
S1130450EE00862B872B8093EE008091F300807F43
S1130460482B4093F3008091F800807FEF01C82B64
S1130470CE018093F8008091FD00807F282B20938B
S1130480FD0080E090E0DF91CF9108956091ED0050
S1130490607F862B8093ED008091F200807F482B53
S11304A04093F2008091F700807FAF01482BCA018E
S11304B08093F7008091FC00807F282B2093FC0020
S11304C080E090E0DF91CF9108956091EC00667F29
S11304D06093EC006091EC00607F7091EC00862BDF
S11304E0872B8093EC008091F100807F482B409310
S11304F0F1008091F600807FAF01482BCA01809300
S1130500F6008091FB00807F282B2093FB0080E085
S113051090E0DF91CF9108958F929F92AF92BF9216
S1130520CF92DF92EF92FF92CF93DF934B015C0166
S1130530EA0124E630E040E050E00E941B052AE096
S1130540C22ED12CE12CF12CA70196010E941B058F
S1130550BE0180E3820F0E94E4002196C501B4012C
S1130560A70196010E941B05862FBE01805DDF91C5
S1130570CF91FF90EF90DF90CF90BF90AF909F907E
S11305808F900C94E4008CE091E00E94A0046091B0
S1130590050170910601809107019091080144E0E2
S11305A050E00E948C021F99EECF809104018823B1
S11305B059F08091EE008F798093EE008091EE00E7
S11305C086608093EE00DFCF8091EE00897F809378
S11305D0EE008091EE0080668093EE00D4CF4F92BF
S11305E05F926F927F928F929F92AF92BF92CF92BF
S11305F0DF92EF92FF92412C512C320153014201C0
S11306008FEF881A980AA80AB80A80E5881683EC3E
S11306109806A104B104B1F180FE28C081E08816D7
S11306209104A104B10411F183E088169104A1049A
S1130630B104F9F083E0C82ED12CE12CF12C0CC0CC
S1130640D701C6010196A11DB11DC414D504E60449
S1130650F70479F06C017D01C501B401A70196018D
S11306600E941B05672B682B692B51F72401350168
S1130670C5CF40E050E0C501B4010E948C022401C2
S11306803501BCCFFF90EF90DF90CF90BF90AF903B
S11306909F908F907F906F905F904F900895E1E6C8
S11306A0F0E080E88083108286E38093E50087E0B1
S11306B08093E6008FE08093E70080EC8093E40071
S11306C08DE08093810080E191E00E94A0048CE0A1
S11306D091E00E94A00461E070E087E590E00E9450
S11306E0A0030E94750462E070E083EC92E00E9433
S11306F0A0030E9475040E94EF0280E090E0089538
S1130700CF93DF9300D0CDB7DEB79A8389838091EE
S113071000019091010106960E946205892B29F03F
S11307200F900F90DF91CF91089589819A819093D2
S113073001018093000161E070E006960E94820549
S1130740CF93DF9300D0CDB7DEB7F89420910A01A0
S113075030910B01232B09F43EC02091020130910A
S113076003013A832983232B09F473C0E981FA81B5
S11307704481558150930301409302019183808306
S11307807383628315821482CF0106960E946205E8
S1130790019709F46BC0E981FA81369689819A81BF
S11307A087599F4F918B808B938B828B80911401FF
S11307B090911501009709F44DC0E981FA81F093F5
S11307C01501E09314019583848378940F900F901E
S11307D0DF91CF91089520EF31E030938801209389
S11307E087012DE532E03093F5012093F4012AECE2
S11307F032E030936202209361021092CF02109291
S1130800CE02279A2F9A15BEEF9AECE6F0E02081EB
S113081020682083E0E8F0E0208120682083EFE670
S1130820F0E020812260208325E83EE130938900B6
S11308302093880021E030E030930B0120930A01DB
S113084020910201309103013A832983232B09F07B
S11308508DCFFFCF29813A81309315012093140164
S113086078940F900F90DF91CF9108957894A09190
S11308700001B0910101ED91FC91119712968D91B7
S11308809C9113970995F894A0910001B0910101EE
S113089015961C921E921497E0910201F0910301A7
S11308A0309711F417C0FC01848195810097D9F722
S11308B0B583A48380911401909115010097A1F050
S11308C0FC012481358130931501209314010E9489
S11308D0800361CFB0930301A093020180911401BE
S11308E090911501009761F7FFCFF8948091000172
S11308F090910101FC0115821482A0911401B09120
S113090015011097B9F0FD0101C0F9012481358169
S113091021153105D1F79583848314962D913C914B
S11309201597CD0130931501209314010E94800383
S113093078940895009709F4FFCF20E030E0F2CFD7
S1130940CF93DF93DC01F8948D919C911197892BBF
S113095041F1C0910001D09101011D821C821296C7
S1130960ED91FC911397309711F423C0FC0184811D
S113097095810097D9F7D583C48380911401909110
S11309801501009769F0FC0124813581309315012C
S1130990209314010E9480037894DF91CF910895ED
S11309A0FFCF81E090E08D939C937894DF91CF9179
S11309B008951396DC93CE931297DFCFCF93DF93F2
S11309C0FC01F89482819381892B51F1C09100013B
S11309D0D09101011D821C82A0911401B0911501D6
S11309E0109711F423C0DC0114968D919C911597F6
S11309F00097C9F71596DC93CE931497828193815F
S1130A00009769F0DC0114962D913C91159733837E
S1130A1022830E9480037894DF91CF910895FFCFC1
S1130A20118210827894DF91CF910895D0931501AB
S1130A30C0931401E3CF052E97FB1EF400940E948B
S1130A40320557FD07D00E94400507FC03D04EF441
S1130A500C94320550954095309521953F4F4F4F5A
S1130A605F4F089590958095709561957F4F8F4F56
S1130A709F4F0895EE0FFF1F0590F491E02D099408
S1130A80A1E21A2EAA1BBB1BFD010DC0AA1FBB1F8E
S1130A90EE1FFF1FA217B307E407F50720F0A21B00
S1130AA0B30BE40BF50B661F771F881F991F1A946D
S1130AB069F760957095809590959B01AC01BD0197
S1130AC0CF010895DC012D923D924D925D926D927D
S1130AD07D928D929D92AD92BD92CD92DD92ED92DA
S1130AE0FD920D931D93CD93DD93FF91EF918DB7FF
S1130AF08D938EB78D938FB78D93ED93FD93882748
S1130B0099270994DC01CB0181309105811D2D9039
S1130B103D904D905D906D907D908D909D90AD90A9
S1130B20BD90CD90DD90ED90FD900D911D91CD91F6
S1130B30DD91ED91FD910D90F894FEBF0FBEEDBFD8
S10D0B40ED91FD910994F894FFCFA4
S1070B4A1601830108
S9030000FC
