S01600004C61625F335F325F4430303033452E7372656331
S11300000C9438000C9455000C9455000C94C600C4
S11300100C9455000C9455000C9455000C949800C5
S11300200C9455000C9455000C9455000C945500F8
S11300300C9455000C9455000C9455000C945500E8
S11300400C9455000C9455000C9455000C945500D8
S11300500C9455000C9455000C945500FF0050016D
S1130060590162016B0174017D0186018F019801C0
S113007011241FBECFEFD4E0DEBFCDBF11E0A0E05E
S1130080B1E0ECEAFCE002C005900D92A430B107A7
S1130090D9F723E0A4E0B1E001C01D92A333B20775
S11300A0E1F70E9410030C9454060C94000087E0BE
S11300B091E00E945D041F9910C08091EE008F7939
S11300C08093EE008091EE0086608093EE0087E0DE
S11300D091E00E945D041F9BF0CF8091EE00897F28
S11300E08093EE008091EE0080668093EE00DFCF77
S11300F08BE091E00E945D0480910401882391F0DB
S11301008091EC00897F8093EC008091EC00866004
S11301108093EC008BE091E00E945D0480910401E7
S11301208111EECF8091EC00897F8093EC00E0CFC9
S11301301F920F920FB60F9211242F933F934F9358
S11301405F936F937F938F939F93AF93BF93EF933B
S1130150FF939091040181E08927809304018BE04F
S113016091E00E949B040E943204FF91EF91BF91A1
S1130170AF919F918F917F916F915F914F913F913B
S11301802F910F900FBE0F901F9018951F920F92F2
S11301900FB60F9211242F933F934F935F936F9356
S11301A07F938F939F93AF93BF93EF93FF9387E0D6
S11301B091E00E949B040E943204FF91EF91BF9151
S11301C0AF919F918F917F916F915F914F913F91EB
S11301D02F910F900FBE0F901F901895CF93DF9320
S11301E090E0FC01F097EA30F10528F082E090E01D
S11301F0DF91CF910895E25DFF4F0C94EB0521E070
S113020030E0E5E0F0E045E050E081E090E062308D
S1130210710509F435C10CF494C06430710509F416
S11302200DC10CF4D5C06530710509F0CCC06091E6
S1130230EE006F707091EE0082959295907F9827F2
S1130240807F9827862B872B8093EE008091F30084
S11302508F7042955295507F5427407F5427482BE6
S11302604093F3004091F8004F70CF01829592952E
S1130270907F9827807F9827842B8093F800809123
S1130280FD008F7022953295307F3227207F3227F0
S1130290282B2093FD0080E090E0DF91CF9108951A
S11302A020E030E0E1E0F0E041E050E080E090E088
S11302B0AECF21E030E0EEE0F0E041E050E081E05C
S11302C090E0A5CF21E030E0EBE0F0E041E050E049
S11302D081E090E09CCF20E030E0EBE0F0E045E00E
S11302E050E080E090E093CF21E030E0EBE0F0E0FC
S11302F044E050E081E090E08ACF21E030E0EFE09C
S1130300F0E044E050E081E090E081CF20E030E094
S1130310E1E0F0E041E050E081E090E078CF21E0DE
S113032030E0EFE0F0E045E050E081E090E06FCFB6
S113033021E030E0EBE0F0E045E050E081E090E0E7
S113034066CF6115710509F4BAC061307105D9F53C
S11303507091EC007F70A091EC0082959295907F53
S11303609827807F9827EC01C72BBE016A2B6093E6
S1130370EC008091F1008F7042955295507F542784
S1130380407F5427482B4093F1004091F6004F7072
S1130390CF0182959295907F9827807F9827842B10
S11303A08093F6008091FB008F7022953295307F08
S11303B03227207F3227282B2093FB0080E090E017
S11303C0DF91CF91089581E090E0DF91CF9108957E
S11303D06091ED006F7082959295907F9827807F51
S11303E09827862B8093ED008091F2008F704295C0
S11303F05295507F5427407F5427482B4093F20056
S11304004091F7004F70CF0182959295907F982785
S1130410807F9827842B8093F7008091FC008F7055
S113042022953295307F3227207F3227282B209344
S1130430FC0080E090E0DF91CF9108956091EE00A0
S1130440607F7091EE00862B872B8093EE00809165
S1130450F300807F482B4093F3008091F800807F65
S1130460EF01C82BCE018093F8008091FD00807FBE
S1130470282B2093FD0080E090E0DF91CF91089538
S11304806091ED00607F862B8093ED008091F200F7
S1130490807F482B4093F2008091F700807FAF016A
S11304A0482BCA018093F7008091FC00807F282BA1
S11304B02093FC0080E090E0DF91CF91089560915B
S11304C0EC00607F7091EC00862B872B8093EC000E
S11304D08091F100807F482B4093F1008091F600D9
S11304E0807FAF01482BCA018093F6008091FB0006
S11304F0807F282B2093FB0080E090E0DF91CF9158
S113050008958F929F92AF92BF92CF92DF92EF9213
S1130510FF92CF93DF93C5E0D0E02AE0C22ED12C26
S1130520E12CF12CA70196010E94CC0549015A0146
S1130530862FBE01805D0E94EE00C501B4010E94B9
S113054010050E944B050E94D804219758F7DF91AB
S1130550CF91FF90EF90DF90CF90BF90AF909F909E
S11305608F9008954F925F926F927F928F929F9295
S1130570AF92BF92CF92DF92EF92FF92412C512C17
S11305803201530142018FEF881A980AA80AB80A67
S113059080E5881683EC9806A104B104A1F180FEDD
S11305A028C081E088169104A104B10411F183E00C
S11305B088169104A104B104F9F083E0C82ED12C6B
S11305C0E12CF12C0CC0D701C6010196A11DB11D6F
S11305D0C414D504E604F70479F06C017D01C50167
S11305E0B401A70196010E94CC05672B682B692BE7
S11305F051F724013501C5CFC501B4010E94810220
S113060024013501BECFFF90EF90DF90CF90BF90D3
S1130610AF909F908F907F906F905F904F900895D0
S1130620E1E6F0E080E88083108286E38093E500D1
S113063087E08093E6008FE08093E70080EC80936E
S1130640E4008DE0809381008BE091E00E945D04E2
S113065087E091E00E945D0461E070E088E790E04B
S11306600E945D0362E070E087E590E00E945D0314
S11306700E94B20280E090E00895CF93DF9300D00F
S1130680CDB7DEB79A8389838091000190910101EF
S113069006960E941306892B29F00F900F90DF9184
S11306A0CF91089589819A819093010180930001EB
S11306B061E070E006960E943306CF93DF9300D08A
S11306C0CDB7DEB7F8942091050130910601232BB4
S11306D009F43EC020910201309103013A83298339
S11306E0232B09F473C0E981FA8144815581509325
S11306F00301409302019183808373836283158293
S11307001482CF0106960E941306019709F46BC068
S1130710E981FA81369689819A8187599F4F918B15
S1130720808B938B828B80910F01909110010097A5
S113073009F44DC0E981FA81F0931001E0930F01AF
S11307409583848378940F900F90DF91CF910895CF
S11307502BEE31E0309383012093820128E532E0CF
S11307603093F0012093EF0125EC32E030935D02E9
S113077020935C021092CA021092C902279A2F9AFF
S113078015BEEF9AECE6F0E0208120682083E0E8D3
S1130790F0E0208120682083EFE6F0E020812260F1
S11307A0208325E83EE1309389002093880021E0EE
S11307B030E030930601209305012091020130912D
S11307C003013A832983232B09F08DCFFFCF29819D
S11307D03A813093100120930F0178940F900F9079
S11307E0DF91CF9108957894A0910001B091010117
S11307F0ED91FC91119712968D919C911397099507
S1130800F894A0910001B091010115961C921E92DA
S11308101497E0910201F0910301309711F417C08D
S1130820FC01848195810097D9F7B583A4838091D5
S11308300F01909110010097A1F0FC0124813581F2
S11308403093100120930F010E943D0361CFB093B8
S11308500301A093020180910F0190911001009770
S113086061F7FFCFF8948091000190910101FC01A0
S113087015821482A0910F01B09110011097B9F064
S1130880FD0101C0F9012481358121153105D1F71C
S11308909583848314962D913C911597CD013093C3
S11308A0100120930F010E943D037894089500974E
S11308B009F4FFCF20E030E0F2CFCF93DF93DC01E7
S11308C0F8948D919C911197892B41F1C09100016D
S11308D0D09101011D821C821296ED91FC91139717
S11308E0309711F423C0FC01848195810097D9F7D6
S11308F0D583C48380910F0190911001009769F012
S1130900FC01248135813093100120930F010E9452
S11309103D037894DF91CF910895FFCF81E090E07B
S11309208D939C937894DF91CF9108951396DC93E3
S1130930CE931297DFCFCF93DF93FC01F89482819B
S11309409381892B51F1C0910001D09101011D8245
S11309501C82A0910F01B0911001109711F423C0D3
S1130960DC0114968D919C9115970097C9F7159603
S1130970DC93CE93149782819381009769F0DC0114
S113098014962D913C911597338322830E943D0345
S11309907894DF91CF910895FFCF118210827894DB
S11309A0DF91CF910895D0931001C0930F01E3CF4D
S11309B00E94DF046894B1110C94C60508950E9446
S11309C0930588F09F5798F0B92F9927B751B0F045
S11309D0E1F0660F771F881F991F1AF0BA95C9F7BF
S11309E014C0B13091F00E94C505B1E008950C9493
S11309F0C505672F782F8827B85F39F0B93FCCF346
S1130A00869577956795B395D9F73EF4909580953B
S1130A10709561957F4F8F4F9F4F0895E89409C05B
S1130A2097FB3EF490958095709561957F4F8F4F1D
S1130A309F4F9923A9F0F92F96E9BB279395F69533
S1130A40879577956795B795F111F8CFFAF4BB0FB1
S1130A5011F460FF1BC06F5F7F4F8F4F9F4F16C015
S1130A60882311F096E911C0772321F09EE8872F9F
S1130A70762F05C0662371F096E8862F70E060E05B
S1130A802AF09A95660F771F881FDAF7880F9695D4
S1130A90879597F908950E94AD0590F09F3748F423
S1130AA0911116F00C94C60560E070E080E89FEBAD
S1130AB0089526F41B16611D711D811D0C94620599
S1130AC00C947D05882371F4772321F09850872BAB
S1130AD0762F07C0662311F499270DC09051862BF9
S1130AE070E060E02AF09A95660F771F881FDAF7A6
S1130AF0880F9695879597F908959F3F31F0915007
S1130B0020F4879577956795B795880F911D9695ED
S1130B10879597F9089557FD9058440F551F59F03C
S1130B205F3F71F04795880F97FB991F61F09F3FD6
S1130B3079F087950895121613061406551FF2CFFF
S1130B404695F1DF08C0161617061806991FF1CF4F
S1130B50869571056105089408950E949305A0F097
S1130B60BEE7B91788F4BB279F3860F41616B11D89
S1130B70672F782F8827985FF7CF869577956795A5
S1130B80B11D93959639C8F30895E894BB27662759
S1130B907727CB0197F90895052E97FB1EF400944F
S1130BA00E94E30557FD07D00E94F10507FC03D01E
S1130BB04EF40C94E30550954095309521953F4FA4
S1130BC04F4F5F4F089590958095709561957F4F35
S1130BD08F4F9F4F0895EE0FFF1F0590F491E02D66
S1130BE00994A1E21A2EAA1BBB1BFD010DC0AA1F6A
S1130BF0BB1FEE1FFF1FA217B307E407F50720F082
S1130C00A21BB30BE40BF50B661F771F881F991FFC
S1130C101A9469F760957095809590959B01AC0145
S1130C20BD01CF010895DC012D923D924D925D925C
S1130C306D927D928D929D92AD92BD92CD92DD92F8
S1130C40ED92FD920D931D93CD93DD93FF91EF9162
S1130C508DB78D938EB78D938FB78D93ED93FD9351
S1130C60882799270994DC01CB0181309105811DE6
S1130C702D903D904D905D906D907D908D909D90C8
S1130C80AD90BD90CD90DD90ED90FD900D911D91B6
S1130C90CD91DD91ED91FD910D90F894FEBF0FBEC5
S10F0CA0EDBFED91FD910994F894FFCF95
S1070CAC11017E01AF
S9030000FC
