S01600004C61625F335F325F4430303033452E7372656331
S11300000C9438000C9455000C9455000C94860004
S11300100C9455000C9455000C9455000C947102EA
S11300200C9455000C9455000C9455000C945500F8
S11300300C9455000C9455000C9455000C945500E8
S11300400C9455000C9455000C9455000C945500D8
S11300500C9455000C9455000C945500C3001201E7
S11300601B0124012D0136013F01480151015A01B0
S113007011241FBECFEFD4E0DEBFCDBF11E0A0E05E
S1130080B1E0EEE7FCE002C005900D92A430B107A8
S1130090D9F723E0A4E0B1E001C01D92A433B20774
S11300A0E1F70E94FD020C943D060C9400008CE0E4
S11300B091E00E94460480918400909185002091F3
S11300C0040130910501821B930B85382EE19207C0
S11300D038F01092EC009093050180930401089588
S11300E086E08093EC00089588E091E00E94460445
S11300F01F9906C08091EE0086608093EE000895FB
S11301008091EE0080668093EE0008951F920F9216
S11301100FB60F9211242F933F934F935F936F93D6
S11301207F938F939F93AF93BF93EF93FF931F9905
S113013008C01092EC0088E091E00E9484040E94C0
S11301401B04FF91EF91BF91AF919F918F917F918C
S11301506F915F914F913F912F910F900FBE0F9030
S11301601F901895CF93DF9390E0FC01F097EA304D
S1130170F10528F082E090E0DF91CF910895E25DEF
S1130180FF4F0C94D405E1E0F0E025E030E045E0D9
S113019050E081E090E06230710509F430C10CF464
S11301A092C06430710509F40BC10CF4D3C06530FE
S11301B0710509F0CAC0A091EE00AF70BC01629550
S11301C07295707F7627607F76276A2B6093EE00A6
S11301D08091F3008F7042955295507F5427407F51
S11301E05427482B4093F3008091F8008F70229598
S11301F03295307F3227207F3227282B2093F80036
S11302002091FD002F70CF0182959295907F9827C1
S1130210807F9827822B8093FD0080E090E0DF911F
S1130220CF910895E0E0F0E021E030E041E050E0DB
S113023080E090E0B0CFE1E0F0E02EE030E041E09B
S113024050E081E090E0A7CFE1E0F0E02BE030E087
S113025041E050E081E090E09ECFE0E0F0E02BE070
S113026030E045E050E080E090E095CFE1E0F0E060
S11302702BE030E044E050E081E090E08CCFE1E01E
S1130280F0E02FE030E044E050E081E090E083CF04
S1130290E0E0F0E021E030E041E050E081E090E097
S11302A07ACFE1E0F0E02FE030E045E050E081E09B
S11302B090E071CFE1E0F0E02BE030E045E050E089
S11302C081E090E068CF6115710509F4B7C0613031
S11302D07105D9F57091EC007F70A091EC008295C6
S11302E09295907F9827807F9827EC01C72BBE01B9
S11302F06A2B6093EC008091F1008F7042955295C7
S1130300507F5427407F5427482B4093F10080911D
S1130310F6008F7022953295307F3227207F322766
S1130320282B2093F6002091FB002F70CF0182959B
S11303309295907F9827807F9827822B8093FB004B
S113034080E090E0DF91CF91089581E090E0DF912B
S1130350CF9108956091ED006F7082959295907F92
S11303609827807F9827862B8093ED008091F20058
S11303708F7042955295507F5427407F5427482BC5
S11303804093F2008091F7008F7022953295307F70
S11303903227207F3227282B2093F7002091FC005E
S11303A02F70CF0182959295907F9827807F982710
S11303B0822B8093FC0080E090E0DF91CF91089540
S11303C06091EE00607F862B8093EE008091F300B5
S11303D0807F482B4093F3008091F800807F282B86
S11303E02093F8008091FD00807FEF01C82BCE019F
S11303F08093FD0080E090E0DF91CF9108956091BB
S1130400ED00607F862B8093ED008091F200807F69
S1130410482B4093F2008091F700807F282B209393
S1130420F7008091FC00807F9F01282BC9018093F5
S1130430FC0080E090E0DF91CF9108956091EC00A2
S1130440607F7091EC00862B872B8093EC00809169
S1130450F100807F482B4093F1008091F600807F6B
S1130460282B2093F6008091FB00807F9F01282B8E
S1130470C9018093FB0080E090E0DF91CF91089563
S11304808F929F92AF92BF92CF92DF92EF92FF92A0
S1130490CF93DF93C5E0D0E02AE0C22ED12CE12C2B
S11304A0F12CA70196010E94B50549015A01862F36
S11304B0BE01805D0E94B200C501B4010E94F9042E
S11304C00E9434050E94C104219758F7DF91CF910F
S11304D0FF90EF90DF90CF90BF90AF909F908F9060
S11304E008951F920F920FB60F9211242F933F93EA
S11304F04F935F936F937F938F939F93AF93BF9328
S1130500EF93FF9367E072EB81E090E00E9440027A
S11305108CE091E00E9484040E941B04FF91EF91FF
S1130520BF91AF919F918F917F916F915F914F9107
S11305303F912F910F900FBE0F901F9018954F92DF
S11305405F926F927F928F929F92AF92BF92CF925F
S1130550DF92EF92FF92412C512C32015301420160
S11305608FEF881A980AA80AB80A80E5881683ECDF
S11305709806A104B104A1F180FE28C081E0881688
S11305809104A104B10411F183E088169104A1043B
S1130590B104F9F083E0C82ED12CE12CF12C0CC06D
S11305A0D701C6010196A11DB11DC414D504E604EA
S11305B0F70479F06C017D01C501B401A70196012E
S11305C00E94B505672B682B692B51F7240135016F
S11305D0C5CFC501B4010E94400224013501BECF3C
S11305E0FF90EF90DF90CF90BF90AF909F908F904F
S11305F07F906F905F904F900895E1E6F0E080E87F
S11306008083108286E38093E50087E08093E60090
S11306108FE08093E70080EC8093E4008DE080938A
S113062081008CE091E00E94460488E091E00E9401
S1130630460461E070E087E590E00E944A0362E0CE
S113064070E084E790E00E944A030E949F0280E0E9
S113065090E00895CF93DF9300D0CDB7DEB79A83AF
S11306608983809100019091010106960E94FC0506
S1130670892B29F00F900F90DF91CF9108958981F4
S11306809A81909301018093000161E070E00696E5
S11306900E941C06CF93DF9300D0CDB7DEB7F89449
S11306A02091060130910701232BD9F120910201F9
S11306B0309103013A832983232B09F470C0E98123
S11306C0FA8144815581509303014093020191833F
S11306D080837383628315821482CF0106960E94FD
S11306E0FC05019709F468C0E981FA81369689818D
S11306F09A8187599F4F918B808B938B828BE0914A
S11307001001F0911101309709F44AC00480F58179
S1130710E02DF583E48378940F900F90DF91CF91CF
S113072008952CEE31E0309384012093830129E570
S113073032E03093F1012093F00126EC32E0309363
S11307405E0220935D021092CB021092CA02279A95
S11307502F9A15BEEF9AECE6F0E020812068208302
S1130760E0E8F0E0208120682083EFE6F0E02081DB
S11307702260208325E83EE130938900209388009D
S113078021E030E03093070120930601209102011B
S1130790309103013A832983232B09F090CFFFCFB3
S11307A029813A81309311012093100178940F909C
S11307B00F90DF91CF9108957894A0910001B091AA
S11307C00101ED91FC91119712968D919C911397D3
S11307D00995F894A0910001B091010115961C921D
S11307E01E921497E0910201F0910301309711F4E5
S11307F017C0FC01848195810097D9F7B583A48340
S113080080911001909111010097A1F0FC012481C5
S1130810358130931101209310010E942A0364CF83
S1130820B0930301A09302018091100190911101F2
S1130830009761F7FFCFF894809100019091010136
S1130840FC0115821482A0911001B091110110973E
S1130850B9F0FD0101C0F90124813581211531056B
S1130860D1F79583848314962D913C911597CD01EE
S113087030931101209310010E942A037894089563
S1130880009709F4FFCF20E030E0F2CFCF93DF935D
S1130890DC01F8948D919C911197892B41F1C091C1
S11308A00001D09101011D821C821296ED91FC91F0
S11308B01397309711F423C0FC018481958100972C
S11308C0D9F7D583C48380911001909111010097C9
S11308D069F0FC01248135813093110120931001CA
S11308E00E942A037894DF91CF910895FFCF81E08D
S11308F090E08D939C937894DF91CF910895139613
S1130900DC93CE931297DFCFCF93DF93FC01F8945F
S113091082819381892B51F1C0910001D091010111
S11309201D821C82A0911001B0911101109711F445
S113093023C0DC0114968D919C9115970097C9F7FB
S11309401596DC93CE93149782819381009769F076
S1130950DC0114962D913C911597338322830E94D8
S11309602A037894DF91CF910895FFCF11821082EA
S11309707894DF91CF910895D0931101C093100121
S1130980E3CF0E94C8046894B1110C94AF05089594
S11309900E947C0588F09F5798F0B92F9927B7518A
S11309A0B0F0E1F0660F771F881F991F1AF0BA950F
S11309B0C9F714C0B13091F00E94AE05B1E00895BA
S11309C00C94AE05672F782F8827B85F39F0B93FAC
S11309D0CCF3869577956795B395D9F73EF49095C2
S11309E08095709561957F4F8F4F9F4F0895E89440
S11309F009C097FB3EF490958095709561957F4F63
S1130A008F4F9F4F9923A9F0F92F96E9BB27939510
S1130A10F695879577956795B795F111F8CFFAF420
S1130A20BB0F11F460FF1BC06F5F7F4F8F4F9F4F51
S1130A3016C0882311F096E911C0772321F09EE8AF
S1130A40872F762F05C0662371F096E8862F70E015
S1130A5060E02AF09A95660F771F881FDAF7880FEF
S1130A609695879597F908950E94960590F09F377B
S1130A7048F4911116F00C94AF0560E070E080E842
S1130A809FEB089526F41B16611D711D811D0C94A6
S1130A904B050C946605882371F4772321F0985054
S1130AA0872B762F07C0662311F499270DC0905128
S1130AB0862B70E060E02AF09A95660F771F881FF6
S1130AC0DAF7880F9695879597F908959F3F31F047
S1130AD0915020F4879577956795B795880F911D68
S1130AE09695879597F9089557FD9058440F551F8B
S1130AF059F05F3F71F04795880F97FB991F61F09C
S1130B009F3F79F087950895121613061406551F12
S1130B10F2CF4695F1DF08C0161617061806991F7E
S1130B20F1CF869571056105089408950E947C05AE
S1130B30A0F0BEE7B91788F4BB279F3860F41616F7
S1130B40B11D672F782F8827985FF7CF8695779503
S1130B506795B11D93959639C8F30895E894BB271A
S1130B6066277727CB0197F90895052E97FB1EF486
S1130B7000940E94CC0557FD07D00E94DA0507FCBB
S1130B8003D04EF40C94CC055095409530952195A6
S1130B903F4F4F4F5F4F08959095809570956195A5
S1130BA07F4F8F4F9F4F0895EE0FFF1F0590F491D5
S1130BB0E02D0994A1E21A2EAA1BBB1BFD010DC056
S1130BC0AA1FBB1FEE1FFF1FA217B307E407F507F9
S1130BD020F0A21BB30BE40BF50B661F771F881FD5
S1130BE0991F1A9469F760957095809590959B016B
S1130BF0AC01BD01CF010895DC012D923D924D92CF
S1130C005D926D927D928D929D92AD92BD92CD92A8
S1130C10DD92ED92FD920D931D93CD93DD93FF91A3
S1130C20EF918DB78D938EB78D938FB78D93ED9391
S1130C30FD93882799270994DC01CB018130910524
S1130C40811D2D903D904D905D906D907D908D9087
S1130C509D90AD90BD90CD90DD90ED90FD900D9167
S1130C601D91CD91DD91ED91FD910D90F894FEBF14
S1110C700FBEEDBFED91FD910994F894FFCFF6
S1070C7E12017F01DB
S9030000FC
